{
  "contractName": "Everpay",
  "abi": [
    {
      "inputs": [
        {
          "internalType": "contract Tether",
          "name": "_tether",
          "type": "address"
        }
      ],
      "payable": false,
      "stateMutability": "nonpayable",
      "type": "constructor"
    },
    {
      "anonymous": false,
      "inputs": [
        {
          "indexed": false,
          "internalType": "address",
          "name": "_sender",
          "type": "address"
        },
        {
          "indexed": false,
          "internalType": "address",
          "name": "_receiver",
          "type": "address"
        },
        {
          "indexed": false,
          "internalType": "uint256",
          "name": "_deposit",
          "type": "uint256"
        },
        {
          "indexed": false,
          "internalType": "address",
          "name": "_token",
          "type": "address"
        },
        {
          "indexed": false,
          "internalType": "uint256",
          "name": "_startTime",
          "type": "uint256"
        },
        {
          "indexed": false,
          "internalType": "uint256",
          "name": "_endTime",
          "type": "uint256"
        }
      ],
      "name": "Stream",
      "type": "event"
    },
    {
      "constant": true,
      "inputs": [
        {
          "internalType": "address",
          "name": "",
          "type": "address"
        }
      ],
      "name": "depositAmountRemaining",
      "outputs": [
        {
          "internalType": "uint256",
          "name": "",
          "type": "uint256"
        }
      ],
      "payable": false,
      "stateMutability": "view",
      "type": "function"
    },
    {
      "constant": true,
      "inputs": [
        {
          "internalType": "address",
          "name": "",
          "type": "address"
        }
      ],
      "name": "isStreaming",
      "outputs": [
        {
          "internalType": "bool",
          "name": "",
          "type": "bool"
        }
      ],
      "payable": false,
      "stateMutability": "view",
      "type": "function"
    },
    {
      "constant": true,
      "inputs": [],
      "name": "owner",
      "outputs": [
        {
          "internalType": "address",
          "name": "",
          "type": "address"
        }
      ],
      "payable": false,
      "stateMutability": "view",
      "type": "function"
    },
    {
      "constant": true,
      "inputs": [
        {
          "internalType": "address",
          "name": "",
          "type": "address"
        }
      ],
      "name": "streamBalanceOf",
      "outputs": [
        {
          "internalType": "uint256",
          "name": "",
          "type": "uint256"
        }
      ],
      "payable": false,
      "stateMutability": "view",
      "type": "function"
    },
    {
      "constant": true,
      "inputs": [],
      "name": "tether",
      "outputs": [
        {
          "internalType": "contract Tether",
          "name": "",
          "type": "address"
        }
      ],
      "payable": false,
      "stateMutability": "view",
      "type": "function"
    },
    {
      "constant": false,
      "inputs": [
        {
          "internalType": "address",
          "name": "_receiver",
          "type": "address"
        },
        {
          "internalType": "uint256",
          "name": "_deposit",
          "type": "uint256"
        },
        {
          "internalType": "address",
          "name": "_token",
          "type": "address"
        },
        {
          "internalType": "uint256",
          "name": "_startTime",
          "type": "uint256"
        },
        {
          "internalType": "uint256",
          "name": "_endTime",
          "type": "uint256"
        }
      ],
      "name": "stream",
      "outputs": [],
      "payable": false,
      "stateMutability": "nonpayable",
      "type": "function"
    },
    {
      "constant": false,
      "inputs": [
        {
          "internalType": "address",
          "name": "_receiver",
          "type": "address"
        }
      ],
      "name": "cancel",
      "outputs": [],
      "payable": false,
      "stateMutability": "nonpayable",
      "type": "function"
    }
  ],
  "bytecode": "0x608060405234801561001057600080fd5b50604051610d36380380610d368339818101604052602081101561003357600080fd5b810190808051906020019092919050505080600160006101000a81548173ffffffffffffffffffffffffffffffffffffffff021916908373ffffffffffffffffffffffffffffffffffffffff160217905550336000806101000a81548173ffffffffffffffffffffffffffffffffffffffff021916908373ffffffffffffffffffffffffffffffffffffffff16021790555050610c61806100d56000396000f3fe608060405234801561001057600080fd5b506004361061007d5760003560e01c80635efc071a1161005b5780635efc071a146101a45780638da5cb5b146101ee578063b13e513914610238578063e6d1246b146102905761007d565b8063398e60a01461008257806347105b3d146100de5780634c33fe9414610160575b600080fd5b6100c46004803603602081101561009857600080fd5b81019080803573ffffffffffffffffffffffffffffffffffffffff1690602001909291905050506102e8565b604051808215151515815260200191505060405180910390f35b61015e600480360360a08110156100f457600080fd5b81019080803573ffffffffffffffffffffffffffffffffffffffff16906020019092919080359060200190929190803573ffffffffffffffffffffffffffffffffffffffff1690602001909291908035906020019092919080359060200190929190505050610308565b005b6101a26004803603602081101561017657600080fd5b81019080803573ffffffffffffffffffffffffffffffffffffffff169060200190929190505050610977565b005b6101ac610b4c565b604051808273ffffffffffffffffffffffffffffffffffffffff1673ffffffffffffffffffffffffffffffffffffffff16815260200191505060405180910390f35b6101f6610b72565b604051808273ffffffffffffffffffffffffffffffffffffffff1673ffffffffffffffffffffffffffffffffffffffff16815260200191505060405180910390f35b61027a6004803603602081101561024e57600080fd5b81019080803573ffffffffffffffffffffffffffffffffffffffff169060200190929190505050610b97565b6040518082815260200191505060405180910390f35b6102d2600480360360208110156102a657600080fd5b81019080803573ffffffffffffffffffffffffffffffffffffffff169060200190929190505050610baf565b6040518082815260200191505060405180910390f35b60046020528060005260406000206000915054906101000a900460ff1681565b6000841161031557600080fd5b83600160009054906101000a900473ffffffffffffffffffffffffffffffffffffffff1673ffffffffffffffffffffffffffffffffffffffff166370a08231336040518263ffffffff1660e01b8152600401808273ffffffffffffffffffffffffffffffffffffffff1673ffffffffffffffffffffffffffffffffffffffff16815260200191505060206040518083038186803b1580156103b557600080fd5b505afa1580156103c9573d6000803e3d6000fd5b505050506040513d60208110156103df57600080fd5b810190808051906020019092919050505010156103fb57600080fd5b6000600360008773ffffffffffffffffffffffffffffffffffffffff1673ffffffffffffffffffffffffffffffffffffffff168152602001908152602001600020541161044757600080fd5b600061045c8383610bc790919063ffffffff16565b905060006104738287610be790919063ffffffff16565b9050600160009054906101000a900473ffffffffffffffffffffffffffffffffffffffff1673ffffffffffffffffffffffffffffffffffffffff166323b872dd3330896040518463ffffffff1660e01b8152600401808473ffffffffffffffffffffffffffffffffffffffff1673ffffffffffffffffffffffffffffffffffffffff1681526020018373ffffffffffffffffffffffffffffffffffffffff1673ffffffffffffffffffffffffffffffffffffffff1681526020018281526020019350505050602060405180830381600087803b15801561055257600080fd5b505af1158015610566573d6000803e3d6000fd5b505050506040513d602081101561057c57600080fd5b810190808051906020019092919050505050600160009054906101000a900473ffffffffffffffffffffffffffffffffffffffff1673ffffffffffffffffffffffffffffffffffffffff1663a9059cbb88836040518363ffffffff1660e01b8152600401808373ffffffffffffffffffffffffffffffffffffffff1673ffffffffffffffffffffffffffffffffffffffff16815260200182815260200192505050602060405180830381600087803b15801561063757600080fd5b505af115801561064b573d6000803e3d6000fd5b505050506040513d602081101561066157600080fd5b8101908080519060200190929190505050506106c581600260008a73ffffffffffffffffffffffffffffffffffffffff1673ffffffffffffffffffffffffffffffffffffffff16815260200190815260200160002054610c0d90919063ffffffff16565b600260008973ffffffffffffffffffffffffffffffffffffffff1673ffffffffffffffffffffffffffffffffffffffff16815260200190815260200160002081905550600460008873ffffffffffffffffffffffffffffffffffffffff1673ffffffffffffffffffffffffffffffffffffffff16815260200190815260200160002060009054906101000a900460ff1661079e5785600360008973ffffffffffffffffffffffffffffffffffffffff1673ffffffffffffffffffffffffffffffffffffffff168152602001908152602001600020819055505b6107f081600360008a73ffffffffffffffffffffffffffffffffffffffff1673ffffffffffffffffffffffffffffffffffffffff16815260200190815260200160002054610bc790919063ffffffff16565b600360008973ffffffffffffffffffffffffffffffffffffffff1673ffffffffffffffffffffffffffffffffffffffff168152602001908152602001600020819055506001600460008973ffffffffffffffffffffffffffffffffffffffff1673ffffffffffffffffffffffffffffffffffffffff16815260200190815260200160002060006101000a81548160ff0219169083151502179055507f96472f4fa516c223eab9d52aded79e47be3165bebc904b2f7d9949efb0324f41338888888888604051808773ffffffffffffffffffffffffffffffffffffffff1673ffffffffffffffffffffffffffffffffffffffff1681526020018673ffffffffffffffffffffffffffffffffffffffff1673ffffffffffffffffffffffffffffffffffffffff1681526020018581526020018473ffffffffffffffffffffffffffffffffffffffff1673ffffffffffffffffffffffffffffffffffffffff168152602001838152602001828152602001965050505050505060405180910390a150505050505050565b600460008273ffffffffffffffffffffffffffffffffffffffff1673ffffffffffffffffffffffffffffffffffffffff16815260200190815260200160002060009054906101000a900460ff166109cd57600080fd5b6000600460008373ffffffffffffffffffffffffffffffffffffffff1673ffffffffffffffffffffffffffffffffffffffff16815260200190815260200160002060006101000a81548160ff021916908315150217905550600160009054906101000a900473ffffffffffffffffffffffffffffffffffffffff1673ffffffffffffffffffffffffffffffffffffffff1663a9059cbb33600360008573ffffffffffffffffffffffffffffffffffffffff1673ffffffffffffffffffffffffffffffffffffffff168152602001908152602001600020546040518363ffffffff1660e01b8152600401808373ffffffffffffffffffffffffffffffffffffffff1673ffffffffffffffffffffffffffffffffffffffff16815260200182815260200192505050602060405180830381600087803b158015610b0d57600080fd5b505af1158015610b21573d6000803e3d6000fd5b505050506040513d6020811015610b3757600080fd5b81019080805190602001909291905050505050565b600160009054906101000a900473ffffffffffffffffffffffffffffffffffffffff1681565b6000809054906101000a900473ffffffffffffffffffffffffffffffffffffffff1681565b60036020528060005260406000206000915090505481565b60026020528060005260406000206000915090505481565b600082821115610bd657600080fd5b600082840390508091505092915050565b6000808211610bf557600080fd5b6000828481610c0057fe5b0490508091505092915050565b600080828401905083811015610c2257600080fd5b809150509291505056fea265627a7a723158209cebf3c4ce8b6f539c893e527df5bfd03c55b5e07b72776a28869bcb9d36c22f64736f6c63430005100032",
  "source": "pragma solidity ^0.5.0;\r\n\r\nimport \"openzeppelin-solidity/contracts/math/SafeMath.sol\";\r\nimport './Tether.sol';\r\n// -- Inspired By Sablier --\r\n// To-Do List\r\n// [] Company and Employee decide on a salary over a fixed time\r\n// [] Stream function (sent by sender received by receiver)\r\n// [] Withdraw function (just receiver)\r\n// [] Cancel function (just sender)\r\n// []\r\n// []\r\n// []\r\n\r\ncontract Everpay {\r\n  using SafeMath for uint;\r\n  \r\n   address public owner;\r\n   Tether public tether;\r\n   mapping(address => uint) public streamBalanceOf;\r\n   mapping(address => uint) public depositAmountRemaining;\r\n   mapping(address => bool) public isStreaming;\r\n   constructor(Tether _tether) public {\r\n    tether = _tether;\r\n    owner = msg.sender;\r\n  }\r\n\r\n  event Stream(\r\n    address _sender, \r\n    address _receiver, \r\n    uint256 _deposit, \r\n    address _token, \r\n    uint256 _startTime, \r\n    uint256 _endTime\r\n  );\r\n\r\n  function stream(address _receiver, uint  _deposit, address _token, uint _startTime, uint _endTime) public {\r\n    // Make sure that user inputed _startTime and _endTime are in seconds\r\n    require(_deposit > 0);\r\n    require(tether.balanceOf(msg.sender) >= _deposit);\r\n    require(depositAmountRemaining[_receiver] > 0);\r\n\r\n    uint _timeDiff = _endTime.sub(_startTime);\r\n    uint _dividedAmount = _deposit.div(_timeDiff);\r\n\r\n    // Transfers full tether amount from sender to this contract address to distribute it to receiver\r\n    tether.transferFrom(msg.sender, address(this), _deposit);\r\n\r\n    // Transfer divided amount from contract to receiver\r\n    tether.transfer(_receiver, _dividedAmount);\r\n\r\n    // Update current stream balance\r\n    streamBalanceOf[_receiver] = streamBalanceOf[_receiver].add(_dividedAmount);\r\n\r\n    //  Store deposit amount remaining in mapping\r\n    if(!isStreaming[_receiver]){\r\n    depositAmountRemaining[_receiver] = _deposit;\r\n    }\r\n    depositAmountRemaining[_receiver] = depositAmountRemaining[_receiver].sub(_dividedAmount);\r\n\r\n    //  Set streaming to true for receiver address\r\n    isStreaming[_receiver] = true;\r\n\r\n    emit Stream(msg.sender, _receiver, _deposit, _token, _startTime, _endTime);\r\n  }\r\n\r\n  function cancel(address _receiver) public {\r\n    require(isStreaming[_receiver]);\r\n\r\n    // After cancel, receiver won't be streaming anymore\r\n    isStreaming[_receiver] = false;\r\n\r\n    tether.transfer(msg.sender, depositAmountRemaining[_receiver]);\r\n\r\n  }\r\n}",
  "sourcePath": "C:/Users/ross4/Desktop/Coding/Blockchain-Code/EverPay/src/contracts/Everpay.sol",
  "compiler": {
    "name": "solc",
    "version": "0.5.16+commit.9c3226ce.Emscripten.clang"
  },
  "schemaVersion": "3.2.3",
  "updatedAt": "2022-03-24T17:38:24.957Z",
  "networkType": "ethereum",
  "devdoc": {
    "methods": {}
  },
  "userdoc": {
    "methods": {}
  }
}